{
  "_format": "hh-sol-artifact-1",
  "contractName": "Game",
  "sourceName": "contracts/Game.sol",
  "abi": [
    {
      "inputs": [
        {
          "internalType": "address",
          "name": "_token",
          "type": "address"
        },
        {
          "internalType": "address",
          "name": "_marketing",
          "type": "address"
        }
      ],
      "stateMutability": "nonpayable",
      "type": "constructor"
    },
    {
      "inputs": [
        {
          "internalType": "address",
          "name": "owner",
          "type": "address"
        }
      ],
      "name": "OwnableInvalidOwner",
      "type": "error"
    },
    {
      "inputs": [
        {
          "internalType": "address",
          "name": "account",
          "type": "address"
        }
      ],
      "name": "OwnableUnauthorizedAccount",
      "type": "error"
    },
    {
      "anonymous": false,
      "inputs": [
        {
          "indexed": true,
          "internalType": "address",
          "name": "user",
          "type": "address"
        },
        {
          "indexed": false,
          "internalType": "uint256",
          "name": "gameId",
          "type": "uint256"
        },
        {
          "indexed": false,
          "internalType": "enum Game.Choice",
          "name": "userChoice",
          "type": "uint8"
        },
        {
          "indexed": false,
          "internalType": "enum Game.Choice",
          "name": "contractChoice",
          "type": "uint8"
        },
        {
          "indexed": false,
          "internalType": "enum Game.Result",
          "name": "result",
          "type": "uint8"
        },
        {
          "indexed": false,
          "internalType": "uint256",
          "name": "betAmount",
          "type": "uint256"
        }
      ],
      "name": "BetPlaced",
      "type": "event"
    },
    {
      "anonymous": false,
      "inputs": [
        {
          "indexed": true,
          "internalType": "address",
          "name": "previousOwner",
          "type": "address"
        },
        {
          "indexed": true,
          "internalType": "address",
          "name": "newOwner",
          "type": "address"
        }
      ],
      "name": "OwnershipTransferred",
      "type": "event"
    },
    {
      "inputs": [
        {
          "internalType": "address",
          "name": "user",
          "type": "address"
        }
      ],
      "name": "calculateAverageBetAmount",
      "outputs": [
        {
          "internalType": "uint256",
          "name": "",
          "type": "uint256"
        }
      ],
      "stateMutability": "view",
      "type": "function"
    },
    {
      "inputs": [
        {
          "internalType": "address",
          "name": "user",
          "type": "address"
        }
      ],
      "name": "calculateWinrate",
      "outputs": [
        {
          "internalType": "uint256",
          "name": "",
          "type": "uint256"
        }
      ],
      "stateMutability": "view",
      "type": "function"
    },
    {
      "inputs": [],
      "name": "gameCounter",
      "outputs": [
        {
          "internalType": "uint256",
          "name": "",
          "type": "uint256"
        }
      ],
      "stateMutability": "view",
      "type": "function"
    },
    {
      "inputs": [
        {
          "internalType": "uint256",
          "name": "",
          "type": "uint256"
        }
      ],
      "name": "gameDetails",
      "outputs": [
        {
          "internalType": "uint256",
          "name": "gameId",
          "type": "uint256"
        },
        {
          "internalType": "address",
          "name": "user",
          "type": "address"
        },
        {
          "internalType": "enum Game.Choice",
          "name": "userChoice",
          "type": "uint8"
        },
        {
          "internalType": "enum Game.Choice",
          "name": "contractChoice",
          "type": "uint8"
        },
        {
          "internalType": "enum Game.Result",
          "name": "result",
          "type": "uint8"
        },
        {
          "internalType": "uint256",
          "name": "betAmount",
          "type": "uint256"
        },
        {
          "internalType": "uint256",
          "name": "timestamp",
          "type": "uint256"
        }
      ],
      "stateMutability": "view",
      "type": "function"
    },
    {
      "inputs": [
        {
          "internalType": "uint256",
          "name": "gameId",
          "type": "uint256"
        }
      ],
      "name": "getGameDetailById",
      "outputs": [
        {
          "components": [
            {
              "internalType": "uint256",
              "name": "gameId",
              "type": "uint256"
            },
            {
              "internalType": "address",
              "name": "user",
              "type": "address"
            },
            {
              "internalType": "enum Game.Choice",
              "name": "userChoice",
              "type": "uint8"
            },
            {
              "internalType": "enum Game.Choice",
              "name": "contractChoice",
              "type": "uint8"
            },
            {
              "internalType": "enum Game.Result",
              "name": "result",
              "type": "uint8"
            },
            {
              "internalType": "uint256",
              "name": "betAmount",
              "type": "uint256"
            },
            {
              "internalType": "uint256",
              "name": "timestamp",
              "type": "uint256"
            }
          ],
          "internalType": "struct Game.GameDetail",
          "name": "",
          "type": "tuple"
        }
      ],
      "stateMutability": "view",
      "type": "function"
    },
    {
      "inputs": [
        {
          "internalType": "address",
          "name": "user",
          "type": "address"
        }
      ],
      "name": "getGameDetailByUser",
      "outputs": [
        {
          "components": [
            {
              "internalType": "uint256",
              "name": "gameId",
              "type": "uint256"
            },
            {
              "internalType": "address",
              "name": "user",
              "type": "address"
            },
            {
              "internalType": "enum Game.Choice",
              "name": "userChoice",
              "type": "uint8"
            },
            {
              "internalType": "enum Game.Choice",
              "name": "contractChoice",
              "type": "uint8"
            },
            {
              "internalType": "enum Game.Result",
              "name": "result",
              "type": "uint8"
            },
            {
              "internalType": "uint256",
              "name": "betAmount",
              "type": "uint256"
            },
            {
              "internalType": "uint256",
              "name": "timestamp",
              "type": "uint256"
            }
          ],
          "internalType": "struct Game.GameDetail[]",
          "name": "",
          "type": "tuple[]"
        }
      ],
      "stateMutability": "view",
      "type": "function"
    },
    {
      "inputs": [
        {
          "internalType": "address",
          "name": "user",
          "type": "address"
        }
      ],
      "name": "getTotalBetAmount",
      "outputs": [
        {
          "internalType": "uint256",
          "name": "",
          "type": "uint256"
        }
      ],
      "stateMutability": "view",
      "type": "function"
    },
    {
      "inputs": [
        {
          "internalType": "address",
          "name": "user",
          "type": "address"
        }
      ],
      "name": "getTotalGames",
      "outputs": [
        {
          "internalType": "uint256",
          "name": "",
          "type": "uint256"
        }
      ],
      "stateMutability": "view",
      "type": "function"
    },
    {
      "inputs": [
        {
          "internalType": "address",
          "name": "user",
          "type": "address"
        }
      ],
      "name": "getTotalWpoinsLost",
      "outputs": [
        {
          "internalType": "uint256",
          "name": "",
          "type": "uint256"
        }
      ],
      "stateMutability": "view",
      "type": "function"
    },
    {
      "inputs": [
        {
          "internalType": "address",
          "name": "user",
          "type": "address"
        }
      ],
      "name": "getTotalWpoinsWon",
      "outputs": [
        {
          "internalType": "uint256",
          "name": "",
          "type": "uint256"
        }
      ],
      "stateMutability": "view",
      "type": "function"
    },
    {
      "inputs": [],
      "name": "marketing",
      "outputs": [
        {
          "internalType": "contract Marketing",
          "name": "",
          "type": "address"
        }
      ],
      "stateMutability": "view",
      "type": "function"
    },
    {
      "inputs": [],
      "name": "owner",
      "outputs": [
        {
          "internalType": "address",
          "name": "",
          "type": "address"
        }
      ],
      "stateMutability": "view",
      "type": "function"
    },
    {
      "inputs": [
        {
          "internalType": "enum Game.Choice",
          "name": "userChoice",
          "type": "uint8"
        },
        {
          "internalType": "uint256",
          "name": "betAmount",
          "type": "uint256"
        }
      ],
      "name": "placeBet",
      "outputs": [],
      "stateMutability": "nonpayable",
      "type": "function"
    },
    {
      "inputs": [],
      "name": "renounceOwnership",
      "outputs": [],
      "stateMutability": "nonpayable",
      "type": "function"
    },
    {
      "inputs": [],
      "name": "token",
      "outputs": [
        {
          "internalType": "contract Wpoins",
          "name": "",
          "type": "address"
        }
      ],
      "stateMutability": "view",
      "type": "function"
    },
    {
      "inputs": [
        {
          "internalType": "address",
          "name": "",
          "type": "address"
        }
      ],
      "name": "totalBetAmount",
      "outputs": [
        {
          "internalType": "uint256",
          "name": "",
          "type": "uint256"
        }
      ],
      "stateMutability": "view",
      "type": "function"
    },
    {
      "inputs": [
        {
          "internalType": "address",
          "name": "",
          "type": "address"
        }
      ],
      "name": "totalDraws",
      "outputs": [
        {
          "internalType": "uint256",
          "name": "",
          "type": "uint256"
        }
      ],
      "stateMutability": "view",
      "type": "function"
    },
    {
      "inputs": [
        {
          "internalType": "address",
          "name": "",
          "type": "address"
        }
      ],
      "name": "totalLoses",
      "outputs": [
        {
          "internalType": "uint256",
          "name": "",
          "type": "uint256"
        }
      ],
      "stateMutability": "view",
      "type": "function"
    },
    {
      "inputs": [
        {
          "internalType": "address",
          "name": "",
          "type": "address"
        }
      ],
      "name": "totalWins",
      "outputs": [
        {
          "internalType": "uint256",
          "name": "",
          "type": "uint256"
        }
      ],
      "stateMutability": "view",
      "type": "function"
    },
    {
      "inputs": [
        {
          "internalType": "address",
          "name": "",
          "type": "address"
        }
      ],
      "name": "totalWpoinsLost",
      "outputs": [
        {
          "internalType": "uint256",
          "name": "",
          "type": "uint256"
        }
      ],
      "stateMutability": "view",
      "type": "function"
    },
    {
      "inputs": [
        {
          "internalType": "address",
          "name": "",
          "type": "address"
        }
      ],
      "name": "totalWpoinsWon",
      "outputs": [
        {
          "internalType": "uint256",
          "name": "",
          "type": "uint256"
        }
      ],
      "stateMutability": "view",
      "type": "function"
    },
    {
      "inputs": [
        {
          "internalType": "address",
          "name": "newOwner",
          "type": "address"
        }
      ],
      "name": "transferOwnership",
      "outputs": [],
      "stateMutability": "nonpayable",
      "type": "function"
    },
    {
      "inputs": [
        {
          "internalType": "address",
          "name": "",
          "type": "address"
        },
        {
          "internalType": "uint256",
          "name": "",
          "type": "uint256"
        }
      ],
      "name": "userGameIds",
      "outputs": [
        {
          "internalType": "uint256",
          "name": "",
          "type": "uint256"
        }
      ],
      "stateMutability": "view",
      "type": "function"
    }
  ],
  "bytecode": "0x60806040523480156200001157600080fd5b506040516200292538038062002925833981810160405281019062000037919062000277565b33600073ffffffffffffffffffffffffffffffffffffffff168173ffffffffffffffffffffffffffffffffffffffff1603620000ad5760006040517f1e4fbdf7000000000000000000000000000000000000000000000000000000008152600401620000a49190620002cf565b60405180910390fd5b620000be816200014960201b60201c565b5081600160006101000a81548173ffffffffffffffffffffffffffffffffffffffff021916908373ffffffffffffffffffffffffffffffffffffffff16021790555080600260006101000a81548173ffffffffffffffffffffffffffffffffffffffff021916908373ffffffffffffffffffffffffffffffffffffffff1602179055505050620002ec565b60008060009054906101000a900473ffffffffffffffffffffffffffffffffffffffff169050816000806101000a81548173ffffffffffffffffffffffffffffffffffffffff021916908373ffffffffffffffffffffffffffffffffffffffff1602179055508173ffffffffffffffffffffffffffffffffffffffff168173ffffffffffffffffffffffffffffffffffffffff167f8be0079c531659141344cd1fd0a4f28419497f9722a3daafe3b4186f6b6457e060405160405180910390a35050565b600080fd5b600073ffffffffffffffffffffffffffffffffffffffff82169050919050565b60006200023f8262000212565b9050919050565b620002518162000232565b81146200025d57600080fd5b50565b600081519050620002718162000246565b92915050565b600080604083850312156200029157620002906200020d565b5b6000620002a18582860162000260565b9250506020620002b48582860162000260565b9150509250929050565b620002c98162000232565b82525050565b6000602082019050620002e66000830184620002be565b92915050565b61262980620002fc6000396000f3fe608060405234801561001057600080fd5b506004361061014d5760003560e01c8063715018a6116100c3578063d3be4fe31161007c578063d3be4fe31461042c578063dcb3b30e1461045c578063ddf8a7d814610478578063f2fde38b146104a8578063faf0ff58146104c4578063fc0c546a146104f45761014d565b8063715018a6146103445780637bc9af7f1461034e5780638da5cb5b1461037e57806396e9b0e21461039c5780639f7def6a146103cc578063ae75a415146103fc5761014d565b80632e0be39a116101155780632e0be39a1461023057806337047e731461024e57806337dc0b7c1461027e57806355dcb904146102ae57806356fd2b8f146102de5780636aa093631461030e5761014d565b80630bb4e185146101525780630d4b8a0c146101825780630dd345f3146101b2578063202f2beb146101e25780632d3e474a14610212575b600080fd5b61016c60048036038101906101679190611b99565b610512565b6040516101799190611bdf565b60405180910390f35b61019c60048036038101906101979190611c26565b61052a565b6040516101a99190611dbe565b60405180910390f35b6101cc60048036038101906101c79190611b99565b61067c565b6040516101d99190611bdf565b60405180910390f35b6101fc60048036038101906101f79190611b99565b6106c5565b6040516102099190611f16565b60405180910390f35b61021a610957565b6040516102279190611f97565b60405180910390f35b61023861097d565b6040516102459190611bdf565b60405180910390f35b61026860048036038101906102639190611b99565b610983565b6040516102759190611bdf565b60405180910390f35b61029860048036038101906102939190611b99565b61099b565b6040516102a59190611bdf565b60405180910390f35b6102c860048036038101906102c39190611b99565b610ada565b6040516102d59190611bdf565b60405180910390f35b6102f860048036038101906102f39190611b99565b610bb7565b6040516103059190611bdf565b60405180910390f35b61032860048036038101906103239190611c26565b610bcf565b60405161033b9796959493929190611fdf565b60405180910390f35b61034c610c58565b005b61036860048036038101906103639190611b99565b610c6c565b6040516103759190611bdf565b60405180910390f35b610386610c84565b604051610393919061204e565b60405180910390f35b6103b660048036038101906103b19190611b99565b610cad565b6040516103c39190611bdf565b60405180910390f35b6103e660048036038101906103e19190611b99565b610cc5565b6040516103f39190611bdf565b60405180910390f35b61041660048036038101906104119190611b99565b610cdd565b6040516104239190611bdf565b60405180910390f35b61044660048036038101906104419190612069565b610d26565b6040516104539190611bdf565b60405180910390f35b610476600480360381019061047191906120ce565b610d57565b005b610492600480360381019061048d9190611b99565b6115b7565b60405161049f9190611bdf565b60405180910390f35b6104c260048036038101906104bd9190611b99565b611702565b005b6104de60048036038101906104d99190611b99565b611788565b6040516104eb9190611bdf565b60405180910390f35b6104fc6117d1565b604051610509919061212f565b60405180910390f35b60096020528060005260406000206000915090505481565b610532611aad565b600460008381526020019081526020016000206040518060e0016040529081600082015481526020016001820160009054906101000a900473ffffffffffffffffffffffffffffffffffffffff1673ffffffffffffffffffffffffffffffffffffffff1673ffffffffffffffffffffffffffffffffffffffff1681526020016001820160149054906101000a900460ff1660028111156105d5576105d4611c71565b5b60028111156105e7576105e6611c71565b5b81526020016001820160159054906101000a900460ff1660028111156106105761060f611c71565b5b600281111561062257610621611c71565b5b81526020016001820160169054906101000a900460ff16600281111561064b5761064a611c71565b5b600281111561065d5761065c611c71565b5b8152602001600282015481526020016003820154815250509050919050565b6000600b60008373ffffffffffffffffffffffffffffffffffffffff1673ffffffffffffffffffffffffffffffffffffffff168152602001908152602001600020549050919050565b60606000600360008473ffffffffffffffffffffffffffffffffffffffff1673ffffffffffffffffffffffffffffffffffffffff16815260200190815260200160002080548060200260200160405190810160405280929190818152602001828054801561075257602002820191906000526020600020905b81548152602001906001019080831161073e575b505050505090506000815167ffffffffffffffff8111156107765761077561214a565b5b6040519080825280602002602001820160405280156107af57816020015b61079c611aad565b8152602001906001900390816107945790505b50905060005b825181101561094c57600460008483815181106107d5576107d4612179565b5b602002602001015181526020019081526020016000206040518060e0016040529081600082015481526020016001820160009054906101000a900473ffffffffffffffffffffffffffffffffffffffff1673ffffffffffffffffffffffffffffffffffffffff1673ffffffffffffffffffffffffffffffffffffffff1681526020016001820160149054906101000a900460ff16600281111561087b5761087a611c71565b5b600281111561088d5761088c611c71565b5b81526020016001820160159054906101000a900460ff1660028111156108b6576108b5611c71565b5b60028111156108c8576108c7611c71565b5b81526020016001820160169054906101000a900460ff1660028111156108f1576108f0611c71565b5b600281111561090357610902611c71565b5b81526020016002820154815260200160038201548152505082828151811061092e5761092d612179565b5b60200260200101819052508080610944906121d7565b9150506107b5565b508092505050919050565b600260009054906101000a900473ffffffffffffffffffffffffffffffffffffffff1681565b60055481565b600a6020528060005260406000206000915090505481565b600080600860008473ffffffffffffffffffffffffffffffffffffffff1673ffffffffffffffffffffffffffffffffffffffff16815260200190815260200160002054600760008573ffffffffffffffffffffffffffffffffffffffff1673ffffffffffffffffffffffffffffffffffffffff16815260200190815260200160002054600660008673ffffffffffffffffffffffffffffffffffffffff1673ffffffffffffffffffffffffffffffffffffffff16815260200190815260200160002054610a68919061221f565b610a72919061221f565b905060008103610a86576000915050610ad5565b80600b60008573ffffffffffffffffffffffffffffffffffffffff1673ffffffffffffffffffffffffffffffffffffffff16815260200190815260200160002054610ad19190612282565b9150505b919050565b6000600860008373ffffffffffffffffffffffffffffffffffffffff1673ffffffffffffffffffffffffffffffffffffffff16815260200190815260200160002054600760008473ffffffffffffffffffffffffffffffffffffffff1673ffffffffffffffffffffffffffffffffffffffff16815260200190815260200160002054600660008573ffffffffffffffffffffffffffffffffffffffff1673ffffffffffffffffffffffffffffffffffffffff16815260200190815260200160002054610ba6919061221f565b610bb0919061221f565b9050919050565b60076020528060005260406000206000915090505481565b60046020528060005260406000206000915090508060000154908060010160009054906101000a900473ffffffffffffffffffffffffffffffffffffffff16908060010160149054906101000a900460ff16908060010160159054906101000a900460ff16908060010160169054906101000a900460ff16908060020154908060030154905087565b610c606117f7565b610c6a600061187e565b565b60086020528060005260406000206000915090505481565b60008060009054906101000a900473ffffffffffffffffffffffffffffffffffffffff16905090565b60066020528060005260406000206000915090505481565b600b6020528060005260406000206000915090505481565b6000600960008373ffffffffffffffffffffffffffffffffffffffff1673ffffffffffffffffffffffffffffffffffffffff168152602001908152602001600020549050919050565b60036020528160005260406000208181548110610d4257600080fd5b90600052602060002001600091509150505481565b60008111610d9a576040517f08c379a0000000000000000000000000000000000000000000000000000000008152600401610d9190612336565b60405180910390fd5b600160009054906101000a900473ffffffffffffffffffffffffffffffffffffffff1673ffffffffffffffffffffffffffffffffffffffff166323b872dd3330846040518463ffffffff1660e01b8152600401610df993929190612356565b6020604051808303816000875af1158015610e18573d6000803e3d6000fd5b505050506040513d601f19601f82011682018060405250810190610e3c91906123c5565b610e7b576040517f08c379a0000000000000000000000000000000000000000000000000000000008152600401610e729061243e565b60405180910390fd5b60006003424433604051602001610e94939291906124c7565b6040516020818303038152906040528051906020012060001c610eb79190612504565b6002811115610ec957610ec8611c71565b5b90506000610ed78483611942565b905060006002811115610eed57610eec611c71565b5b816002811115610f0057610eff611c71565b5b036110f9576000600284610f149190612535565b90506001600660003373ffffffffffffffffffffffffffffffffffffffff1673ffffffffffffffffffffffffffffffffffffffff1681526020019081526020016000206000828254610f66919061221f565b9250508190555080600960003373ffffffffffffffffffffffffffffffffffffffff1673ffffffffffffffffffffffffffffffffffffffff1681526020019081526020016000206000828254610fbc919061221f565b92505081905550600160009054906101000a900473ffffffffffffffffffffffffffffffffffffffff1673ffffffffffffffffffffffffffffffffffffffff1663a9059cbb33836040518363ffffffff1660e01b8152600401611020929190612577565b6020604051808303816000875af115801561103f573d6000803e3d6000fd5b505050506040513d601f19601f8201168201806040525081019061106391906123c5565b50600260009054906101000a900473ffffffffffffffffffffffffffffffffffffffff1673ffffffffffffffffffffffffffffffffffffffff1663ce8da9be33836040518363ffffffff1660e01b81526004016110c1929190612577565b600060405180830381600087803b1580156110db57600080fd5b505af11580156110ef573d6000803e3d6000fd5b50505050506112ef565b6001600281111561110d5761110c611c71565b5b8160028111156111205761111f611c71565b5b036111d7576001600760003373ffffffffffffffffffffffffffffffffffffffff1673ffffffffffffffffffffffffffffffffffffffff1681526020019081526020016000206000828254611175919061221f565b9250508190555082600a60003373ffffffffffffffffffffffffffffffffffffffff1673ffffffffffffffffffffffffffffffffffffffff16815260200190815260200160002060008282546111cb919061221f565b925050819055506112ee565b6001600860003373ffffffffffffffffffffffffffffffffffffffff1673ffffffffffffffffffffffffffffffffffffffff1681526020019081526020016000206000828254611227919061221f565b925050819055506000606460508561123f9190612535565b6112499190612282565b9050600160009054906101000a900473ffffffffffffffffffffffffffffffffffffffff1673ffffffffffffffffffffffffffffffffffffffff1663a9059cbb33836040518363ffffffff1660e01b81526004016112a8929190612577565b6020604051808303816000875af11580156112c7573d6000803e3d6000fd5b505050506040513d601f19601f820116820180604052508101906112eb91906123c5565b50505b5b82600b60003373ffffffffffffffffffffffffffffffffffffffff1673ffffffffffffffffffffffffffffffffffffffff168152602001908152602001600020600082825461133e919061221f565b9250508190555060056000815480929190611358906121d7565b919050555060006040518060e0016040528060055481526020013373ffffffffffffffffffffffffffffffffffffffff1681526020018660028111156113a1576113a0611c71565b5b81526020018460028111156113b9576113b8611c71565b5b81526020018360028111156113d1576113d0611c71565b5b8152602001858152602001428152509050806004600060055481526020019081526020016000206000820151816000015560208201518160010160006101000a81548173ffffffffffffffffffffffffffffffffffffffff021916908373ffffffffffffffffffffffffffffffffffffffff16021790555060408201518160010160146101000a81548160ff0219169083600281111561147457611473611c71565b5b021790555060608201518160010160156101000a81548160ff021916908360028111156114a4576114a3611c71565b5b021790555060808201518160010160166101000a81548160ff021916908360028111156114d4576114d3611c71565b5b021790555060a0820151816002015560c08201518160030155905050600360003373ffffffffffffffffffffffffffffffffffffffff1673ffffffffffffffffffffffffffffffffffffffff16815260200190815260200160002060055490806001815401808255809150506001900390600052602060002001600090919091909150553373ffffffffffffffffffffffffffffffffffffffff167f1c61c77c7bcc8cb88d93161eb363227d452efaa8c767a97d97e377f0f4effb99600554878686896040516115a89594939291906125a0565b60405180910390a25050505050565b600080600860008473ffffffffffffffffffffffffffffffffffffffff1673ffffffffffffffffffffffffffffffffffffffff16815260200190815260200160002054600760008573ffffffffffffffffffffffffffffffffffffffff1673ffffffffffffffffffffffffffffffffffffffff16815260200190815260200160002054600660008673ffffffffffffffffffffffffffffffffffffffff1673ffffffffffffffffffffffffffffffffffffffff16815260200190815260200160002054611684919061221f565b61168e919061221f565b9050600081036116a25760009150506116fd565b806064600660008673ffffffffffffffffffffffffffffffffffffffff1673ffffffffffffffffffffffffffffffffffffffff168152602001908152602001600020546116ef9190612535565b6116f99190612282565b9150505b919050565b61170a6117f7565b600073ffffffffffffffffffffffffffffffffffffffff168173ffffffffffffffffffffffffffffffffffffffff160361177c5760006040517f1e4fbdf7000000000000000000000000000000000000000000000000000000008152600401611773919061204e565b60405180910390fd5b6117858161187e565b50565b6000600a60008373ffffffffffffffffffffffffffffffffffffffff1673ffffffffffffffffffffffffffffffffffffffff168152602001908152602001600020549050919050565b600160009054906101000a900473ffffffffffffffffffffffffffffffffffffffff1681565b6117ff611aa5565b73ffffffffffffffffffffffffffffffffffffffff1661181d610c84565b73ffffffffffffffffffffffffffffffffffffffff161461187c57611840611aa5565b6040517f118cdaa7000000000000000000000000000000000000000000000000000000008152600401611873919061204e565b60405180910390fd5b565b60008060009054906101000a900473ffffffffffffffffffffffffffffffffffffffff169050816000806101000a81548173ffffffffffffffffffffffffffffffffffffffff021916908373ffffffffffffffffffffffffffffffffffffffff1602179055508173ffffffffffffffffffffffffffffffffffffffff168173ffffffffffffffffffffffffffffffffffffffff167f8be0079c531659141344cd1fd0a4f28419497f9722a3daafe3b4186f6b6457e060405160405180910390a35050565b600081600281111561195757611956611c71565b5b83600281111561196a57611969611c71565b5b036119785760029050611a9f565b6000600281111561198c5761198b611c71565b5b83600281111561199f5761199e611c71565b5b1480156119d05750600160028111156119bb576119ba611c71565b5b8260028111156119ce576119cd611c71565b5b145b80611a2e57506002808111156119e9576119e8611c71565b5b8360028111156119fc576119fb611c71565b5b148015611a2d575060006002811115611a1857611a17611c71565b5b826002811115611a2b57611a2a611c71565b5b145b5b80611a8c575060016002811115611a4857611a47611c71565b5b836002811115611a5b57611a5a611c71565b5b148015611a8b5750600280811115611a7657611a75611c71565b5b826002811115611a8957611a88611c71565b5b145b5b15611a9a5760009050611a9f565b600190505b92915050565b600033905090565b6040518060e0016040528060008152602001600073ffffffffffffffffffffffffffffffffffffffff16815260200160006002811115611af057611aef611c71565b5b815260200160006002811115611b0957611b08611c71565b5b815260200160006002811115611b2257611b21611c71565b5b815260200160008152602001600081525090565b600080fd5b600073ffffffffffffffffffffffffffffffffffffffff82169050919050565b6000611b6682611b3b565b9050919050565b611b7681611b5b565b8114611b8157600080fd5b50565b600081359050611b9381611b6d565b92915050565b600060208284031215611baf57611bae611b36565b5b6000611bbd84828501611b84565b91505092915050565b6000819050919050565b611bd981611bc6565b82525050565b6000602082019050611bf46000830184611bd0565b92915050565b611c0381611bc6565b8114611c0e57600080fd5b50565b600081359050611c2081611bfa565b92915050565b600060208284031215611c3c57611c3b611b36565b5b6000611c4a84828501611c11565b91505092915050565b611c5c81611bc6565b82525050565b611c6b81611b5b565b82525050565b7f4e487b7100000000000000000000000000000000000000000000000000000000600052602160045260246000fd5b60038110611cb157611cb0611c71565b5b50565b6000819050611cc282611ca0565b919050565b6000611cd282611cb4565b9050919050565b611ce281611cc7565b82525050565b60038110611cf957611cf8611c71565b5b50565b6000819050611d0a82611ce8565b919050565b6000611d1a82611cfc565b9050919050565b611d2a81611d0f565b82525050565b60e082016000820151611d466000850182611c53565b506020820151611d596020850182611c62565b506040820151611d6c6040850182611cd9565b506060820151611d7f6060850182611cd9565b506080820151611d926080850182611d21565b5060a0820151611da560a0850182611c53565b5060c0820151611db860c0850182611c53565b50505050565b600060e082019050611dd36000830184611d30565b92915050565b600081519050919050565b600082825260208201905092915050565b6000819050602082019050919050565b60e082016000820151611e1b6000850182611c53565b506020820151611e2e6020850182611c62565b506040820151611e416040850182611cd9565b506060820151611e546060850182611cd9565b506080820151611e676080850182611d21565b5060a0820151611e7a60a0850182611c53565b5060c0820151611e8d60c0850182611c53565b50505050565b6000611e9f8383611e05565b60e08301905092915050565b6000602082019050919050565b6000611ec382611dd9565b611ecd8185611de4565b9350611ed883611df5565b8060005b83811015611f09578151611ef08882611e93565b9750611efb83611eab565b925050600181019050611edc565b5085935050505092915050565b60006020820190508181036000830152611f308184611eb8565b905092915050565b6000819050919050565b6000611f5d611f58611f5384611b3b565b611f38565b611b3b565b9050919050565b6000611f6f82611f42565b9050919050565b6000611f8182611f64565b9050919050565b611f9181611f76565b82525050565b6000602082019050611fac6000830184611f88565b92915050565b611fbb81611b5b565b82525050565b611fca81611cc7565b82525050565b611fd981611d0f565b82525050565b600060e082019050611ff4600083018a611bd0565b6120016020830189611fb2565b61200e6040830188611fc1565b61201b6060830187611fc1565b6120286080830186611fd0565b61203560a0830185611bd0565b61204260c0830184611bd0565b98975050505050505050565b60006020820190506120636000830184611fb2565b92915050565b600080604083850312156120805761207f611b36565b5b600061208e85828601611b84565b925050602061209f85828601611c11565b9150509250929050565b600381106120b657600080fd5b50565b6000813590506120c8816120a9565b92915050565b600080604083850312156120e5576120e4611b36565b5b60006120f3858286016120b9565b925050602061210485828601611c11565b9150509250929050565b600061211982611f64565b9050919050565b6121298161210e565b82525050565b60006020820190506121446000830184612120565b92915050565b7f4e487b7100000000000000000000000000000000000000000000000000000000600052604160045260246000fd5b7f4e487b7100000000000000000000000000000000000000000000000000000000600052603260045260246000fd5b7f4e487b7100000000000000000000000000000000000000000000000000000000600052601160045260246000fd5b60006121e282611bc6565b91507fffffffffffffffffffffffffffffffffffffffffffffffffffffffffffffffff8203612214576122136121a8565b5b600182019050919050565b600061222a82611bc6565b915061223583611bc6565b925082820190508082111561224d5761224c6121a8565b5b92915050565b7f4e487b7100000000000000000000000000000000000000000000000000000000600052601260045260246000fd5b600061228d82611bc6565b915061229883611bc6565b9250826122a8576122a7612253565b5b828204905092915050565b600082825260208201905092915050565b7f42657420616d6f756e74206d7573742062652067726561746572207468616e2060008201527f3000000000000000000000000000000000000000000000000000000000000000602082015250565b60006123206021836122b3565b915061232b826122c4565b604082019050919050565b6000602082019050818103600083015261234f81612313565b9050919050565b600060608201905061236b6000830186611fb2565b6123786020830185611fb2565b6123856040830184611bd0565b949350505050565b60008115159050919050565b6123a28161238d565b81146123ad57600080fd5b50565b6000815190506123bf81612399565b92915050565b6000602082840312156123db576123da611b36565b5b60006123e9848285016123b0565b91505092915050565b7f426574206661696c656400000000000000000000000000000000000000000000600082015250565b6000612428600a836122b3565b9150612433826123f2565b602082019050919050565b600060208201905081810360008301526124578161241b565b9050919050565b6000819050919050565b61247961247482611bc6565b61245e565b82525050565b60008160601b9050919050565b60006124978261247f565b9050919050565b60006124a98261248c565b9050919050565b6124c16124bc82611b5b565b61249e565b82525050565b60006124d38286612468565b6020820191506124e38285612468565b6020820191506124f382846124b0565b601482019150819050949350505050565b600061250f82611bc6565b915061251a83611bc6565b92508261252a57612529612253565b5b828206905092915050565b600061254082611bc6565b915061254b83611bc6565b925082820261255981611bc6565b915082820484148315176125705761256f6121a8565b5b5092915050565b600060408201905061258c6000830185611fb2565b6125996020830184611bd0565b9392505050565b600060a0820190506125b56000830188611bd0565b6125c26020830187611fc1565b6125cf6040830186611fc1565b6125dc6060830185611fd0565b6125e96080830184611bd0565b969550505050505056fea2646970667358221220309888abec2c4ab14642b2bf9ee5268b1feccab8e564b91cf3ec1723e04ff44164736f6c63430008140033",
  "linkReferences": {},
  "deployedLinkReferences": {}
}