{
  "_format": "hh-sol-artifact-1",
  "contractName": "Marketing",
  "sourceName": "contracts/Marketing.sol",
  "abi": [
    {
      "inputs": [
        {
          "internalType": "address",
          "name": "_token",
          "type": "address"
        }
      ],
      "stateMutability": "nonpayable",
      "type": "constructor"
    },
    {
      "inputs": [
        {
          "internalType": "address",
          "name": "owner",
          "type": "address"
        }
      ],
      "name": "OwnableInvalidOwner",
      "type": "error"
    },
    {
      "inputs": [
        {
          "internalType": "address",
          "name": "account",
          "type": "address"
        }
      ],
      "name": "OwnableUnauthorizedAccount",
      "type": "error"
    },
    {
      "anonymous": false,
      "inputs": [
        {
          "indexed": true,
          "internalType": "address",
          "name": "previousOwner",
          "type": "address"
        },
        {
          "indexed": true,
          "internalType": "address",
          "name": "newOwner",
          "type": "address"
        }
      ],
      "name": "OwnershipTransferred",
      "type": "event"
    },
    {
      "anonymous": false,
      "inputs": [
        {
          "indexed": true,
          "internalType": "address",
          "name": "user",
          "type": "address"
        },
        {
          "indexed": false,
          "internalType": "string",
          "name": "username",
          "type": "string"
        },
        {
          "indexed": false,
          "internalType": "string",
          "name": "avatar",
          "type": "string"
        },
        {
          "indexed": false,
          "internalType": "string",
          "name": "referralCode",
          "type": "string"
        }
      ],
      "name": "ReferralRegistered",
      "type": "event"
    },
    {
      "anonymous": false,
      "inputs": [
        {
          "indexed": true,
          "internalType": "address",
          "name": "user",
          "type": "address"
        },
        {
          "indexed": false,
          "internalType": "string",
          "name": "referralCode",
          "type": "string"
        },
        {
          "indexed": true,
          "internalType": "address",
          "name": "referrer",
          "type": "address"
        }
      ],
      "name": "ReferralUsed",
      "type": "event"
    },
    {
      "anonymous": false,
      "inputs": [
        {
          "indexed": true,
          "internalType": "address",
          "name": "referrer",
          "type": "address"
        },
        {
          "indexed": true,
          "internalType": "address",
          "name": "referee",
          "type": "address"
        },
        {
          "indexed": false,
          "internalType": "uint256",
          "name": "reward",
          "type": "uint256"
        }
      ],
      "name": "ReferrerReward",
      "type": "event"
    },
    {
      "inputs": [],
      "name": "REFERRAL_REGISTRATION_REWARD",
      "outputs": [
        {
          "internalType": "uint256",
          "name": "",
          "type": "uint256"
        }
      ],
      "stateMutability": "view",
      "type": "function"
    },
    {
      "inputs": [],
      "name": "REFERRER_REWARD",
      "outputs": [
        {
          "internalType": "uint256",
          "name": "",
          "type": "uint256"
        }
      ],
      "stateMutability": "view",
      "type": "function"
    },
    {
      "inputs": [],
      "name": "REFERRER_WIN_SHARE",
      "outputs": [
        {
          "internalType": "uint256",
          "name": "",
          "type": "uint256"
        }
      ],
      "stateMutability": "view",
      "type": "function"
    },
    {
      "inputs": [
        {
          "internalType": "string",
          "name": "",
          "type": "string"
        }
      ],
      "name": "codeToUser",
      "outputs": [
        {
          "internalType": "address",
          "name": "",
          "type": "address"
        }
      ],
      "stateMutability": "view",
      "type": "function"
    },
    {
      "inputs": [],
      "name": "owner",
      "outputs": [
        {
          "internalType": "address",
          "name": "",
          "type": "address"
        }
      ],
      "stateMutability": "view",
      "type": "function"
    },
    {
      "inputs": [
        {
          "internalType": "string",
          "name": "username",
          "type": "string"
        },
        {
          "internalType": "string",
          "name": "avatar",
          "type": "string"
        },
        {
          "internalType": "string",
          "name": "referralCode",
          "type": "string"
        }
      ],
      "name": "register",
      "outputs": [],
      "stateMutability": "nonpayable",
      "type": "function"
    },
    {
      "inputs": [],
      "name": "renounceOwnership",
      "outputs": [],
      "stateMutability": "nonpayable",
      "type": "function"
    },
    {
      "inputs": [
        {
          "internalType": "address",
          "name": "referee",
          "type": "address"
        },
        {
          "internalType": "uint256",
          "name": "winAmount",
          "type": "uint256"
        }
      ],
      "name": "rewardReferrer",
      "outputs": [],
      "stateMutability": "nonpayable",
      "type": "function"
    },
    {
      "inputs": [],
      "name": "token",
      "outputs": [
        {
          "internalType": "contract Wpoins",
          "name": "",
          "type": "address"
        }
      ],
      "stateMutability": "view",
      "type": "function"
    },
    {
      "inputs": [
        {
          "internalType": "address",
          "name": "newOwner",
          "type": "address"
        }
      ],
      "name": "transferOwnership",
      "outputs": [],
      "stateMutability": "nonpayable",
      "type": "function"
    },
    {
      "inputs": [
        {
          "internalType": "address",
          "name": "",
          "type": "address"
        }
      ],
      "name": "users",
      "outputs": [
        {
          "internalType": "string",
          "name": "username",
          "type": "string"
        },
        {
          "internalType": "string",
          "name": "avatar",
          "type": "string"
        },
        {
          "internalType": "string",
          "name": "referralCode",
          "type": "string"
        },
        {
          "internalType": "uint256",
          "name": "referralCount",
          "type": "uint256"
        },
        {
          "internalType": "uint256",
          "name": "totalReferralEarnings",
          "type": "uint256"
        },
        {
          "internalType": "uint256",
          "name": "totalReferralWins",
          "type": "uint256"
        }
      ],
      "stateMutability": "view",
      "type": "function"
    }
  ],
  "bytecode": "0x60806040523480156200001157600080fd5b5060405162001fa138038062001fa1833981810160405281019062000037919062000235565b33600073ffffffffffffffffffffffffffffffffffffffff168173ffffffffffffffffffffffffffffffffffffffff1603620000ad5760006040517f1e4fbdf7000000000000000000000000000000000000000000000000000000008152600401620000a4919062000278565b60405180910390fd5b620000be816200010760201b60201c565b5080600160006101000a81548173ffffffffffffffffffffffffffffffffffffffff021916908373ffffffffffffffffffffffffffffffffffffffff1602179055505062000295565b60008060009054906101000a900473ffffffffffffffffffffffffffffffffffffffff169050816000806101000a81548173ffffffffffffffffffffffffffffffffffffffff021916908373ffffffffffffffffffffffffffffffffffffffff1602179055508173ffffffffffffffffffffffffffffffffffffffff168173ffffffffffffffffffffffffffffffffffffffff167f8be0079c531659141344cd1fd0a4f28419497f9722a3daafe3b4186f6b6457e060405160405180910390a35050565b600080fd5b600073ffffffffffffffffffffffffffffffffffffffff82169050919050565b6000620001fd82620001d0565b9050919050565b6200020f81620001f0565b81146200021b57600080fd5b50565b6000815190506200022f8162000204565b92915050565b6000602082840312156200024e576200024d620001cb565b5b60006200025e848285016200021e565b91505092915050565b6200027281620001f0565b82525050565b60006020820190506200028f600083018462000267565b92915050565b611cfc80620002a56000396000f3fe608060405234801561001057600080fd5b50600436106100a95760003560e01c806393ca75681161007157806393ca756814610140578063a87430ba1461015e578063ce8da9be14610193578063f2fde38b146101af578063f9986d47146101cb578063fc0c546a146101e9576100a9565b8063152c1725146100ae5780634cd08d03146100de5780636e16fb2d146100fa578063715018a6146101185780638da5cb5b14610122575b600080fd5b6100c860048036038101906100c391906110e2565b610207565b6040516100d5919061116c565b60405180910390f35b6100f860048036038101906100f39190611187565b610250565b005b610102610746565b60405161010f9190611247565b60405180910390f35b61012061074b565b005b61012a61075f565b604051610137919061116c565b60405180910390f35b610148610788565b6040516101559190611247565b60405180910390f35b6101786004803603810190610173919061128e565b610795565b60405161018a9695949392919061133a565b60405180910390f35b6101ad60048036038101906101a891906113dc565b610969565b005b6101c960048036038101906101c4919061128e565b610c07565b005b6101d3610c8d565b6040516101e09190611247565b60405180910390f35b6101f1610c9a565b6040516101fe919061147b565b60405180910390f35b6003818051602081018201805184825260208301602085012081835280955050505050506000915054906101000a900473ffffffffffffffffffffffffffffffffffffffff1681565b6000600260003373ffffffffffffffffffffffffffffffffffffffff1673ffffffffffffffffffffffffffffffffffffffff168152602001908152602001600020600001805461029f906114c5565b9050146102e1576040517f08c379a00000000000000000000000000000000000000000000000000000000081526004016102d890611542565b60405180910390fd5b60006102ec33610cc0565b90506040518060c0016040528085815260200184815260200182815260200160008152602001600081526020016000815250600260003373ffffffffffffffffffffffffffffffffffffffff1673ffffffffffffffffffffffffffffffffffffffff16815260200190815260200160002060008201518160000190816103729190611704565b5060208201518160010190816103889190611704565b50604082015181600201908161039e9190611704565b50606082015181600301556080820151816004015560a08201518160050155905050336003826040516103d19190611812565b908152602001604051809103902060006101000a81548173ffffffffffffffffffffffffffffffffffffffff021916908373ffffffffffffffffffffffffffffffffffffffff1602179055503373ffffffffffffffffffffffffffffffffffffffff167f3b48b6490abc2606970ecaed08bcf35d1f36a9ebdec151354b1bfbfdbac1cb4185858460405161046793929190611829565b60405180910390a260008251111561074057600060038360405161048b9190611812565b908152602001604051809103902060009054906101000a900473ffffffffffffffffffffffffffffffffffffffff169050600073ffffffffffffffffffffffffffffffffffffffff168173ffffffffffffffffffffffffffffffffffffffff161415801561052557503373ffffffffffffffffffffffffffffffffffffffff168173ffffffffffffffffffffffffffffffffffffffff1614155b1561073e57600160009054906101000a900473ffffffffffffffffffffffffffffffffffffffff1673ffffffffffffffffffffffffffffffffffffffff1663a9059cbb82683635c9adc5dea000006040518363ffffffff1660e01b8152600401610590929190611875565b6020604051808303816000875af11580156105af573d6000803e3d6000fd5b505050506040513d601f19601f820116820180604052508101906105d391906118d6565b50600160009054906101000a900473ffffffffffffffffffffffffffffffffffffffff1673ffffffffffffffffffffffffffffffffffffffff1663a9059cbb33683635c9adc5dea000006040518363ffffffff1660e01b815260040161063a929190611875565b6020604051808303816000875af1158015610659573d6000803e3d6000fd5b505050506040513d601f19601f8201168201806040525081019061067d91906118d6565b506001600260008373ffffffffffffffffffffffffffffffffffffffff1673ffffffffffffffffffffffffffffffffffffffff16815260200190815260200160002060030160008282546106d19190611932565b925050819055508073ffffffffffffffffffffffffffffffffffffffff163373ffffffffffffffffffffffffffffffffffffffff167f7f4295d529cb1fafd5eee3e47f17f636e81a66d5bb99a18711f2b46e3ec58151856040516107359190611966565b60405180910390a35b505b50505050565b600581565b610753610df8565b61075d6000610e7f565b565b60008060009054906101000a900473ffffffffffffffffffffffffffffffffffffffff16905090565b683635c9adc5dea0000081565b60026020528060005260406000206000915090508060000180546107b8906114c5565b80601f01602080910402602001604051908101604052809291908181526020018280546107e4906114c5565b80156108315780601f1061080657610100808354040283529160200191610831565b820191906000526020600020905b81548152906001019060200180831161081457829003601f168201915b505050505090806001018054610846906114c5565b80601f0160208091040260200160405190810160405280929190818152602001828054610872906114c5565b80156108bf5780601f10610894576101008083540402835291602001916108bf565b820191906000526020600020905b8154815290600101906020018083116108a257829003601f168201915b5050505050908060020180546108d4906114c5565b80601f0160208091040260200160405190810160405280929190818152602001828054610900906114c5565b801561094d5780601f106109225761010080835404028352916020019161094d565b820191906000526020600020905b81548152906001019060200180831161093057829003601f168201915b5050505050908060030154908060040154908060050154905086565b610971610df8565b60006003600260008573ffffffffffffffffffffffffffffffffffffffff1673ffffffffffffffffffffffffffffffffffffffff1681526020019081526020016000206002016040516109c49190611a0b565b908152602001604051809103902060009054906101000a900473ffffffffffffffffffffffffffffffffffffffff169050600073ffffffffffffffffffffffffffffffffffffffff168173ffffffffffffffffffffffffffffffffffffffff1614610c025760006103e8600584610a3b9190611a22565b610a459190611a93565b9050600160009054906101000a900473ffffffffffffffffffffffffffffffffffffffff1673ffffffffffffffffffffffffffffffffffffffff1663a9059cbb83836040518363ffffffff1660e01b8152600401610aa4929190611875565b6020604051808303816000875af1158015610ac3573d6000803e3d6000fd5b505050506040513d601f19601f82011682018060405250810190610ae791906118d6565b5080600260008473ffffffffffffffffffffffffffffffffffffffff1673ffffffffffffffffffffffffffffffffffffffff1681526020019081526020016000206004016000828254610b3a9190611932565b925050819055506001600260008473ffffffffffffffffffffffffffffffffffffffff1673ffffffffffffffffffffffffffffffffffffffff1681526020019081526020016000206005016000828254610b949190611932565b925050819055508373ffffffffffffffffffffffffffffffffffffffff168273ffffffffffffffffffffffffffffffffffffffff167fc51e6715f1606356b7d9d54dc802c73068a4e2aaa6ed6ec5788cddce7c0f179383604051610bf89190611247565b60405180910390a3505b505050565b610c0f610df8565b600073ffffffffffffffffffffffffffffffffffffffff168173ffffffffffffffffffffffffffffffffffffffff1603610c815760006040517f1e4fbdf7000000000000000000000000000000000000000000000000000000008152600401610c78919061116c565b60405180910390fd5b610c8a81610e7f565b50565b683635c9adc5dea0000081565b600160009054906101000a900473ffffffffffffffffffffffffffffffffffffffff1681565b6060600082604051602001610cd59190611b0c565b6040516020818303038152906040528051906020012090506000600567ffffffffffffffff811115610d0a57610d09610fb7565b5b6040519080825280601f01601f191660200182016040528015610d3c5781602001600182028036833780820191505090505b50905060005b6005811015610dce57610d796010848360208110610d6357610d62611b27565b5b1a60f81b60f81c610d749190611b63565b610f43565b828281518110610d8c57610d8b611b27565b5b60200101907effffffffffffffffffffffffffffffffffffffffffffffffffffffffffffff1916908160001a9053508080610dc690611b94565b915050610d42565b5080604051602001610de09190611c6f565b60405160208183030381529060405292505050919050565b610e00610f80565b73ffffffffffffffffffffffffffffffffffffffff16610e1e61075f565b73ffffffffffffffffffffffffffffffffffffffff1614610e7d57610e41610f80565b6040517f118cdaa7000000000000000000000000000000000000000000000000000000008152600401610e74919061116c565b60405180910390fd5b565b60008060009054906101000a900473ffffffffffffffffffffffffffffffffffffffff169050816000806101000a81548173ffffffffffffffffffffffffffffffffffffffff021916908373ffffffffffffffffffffffffffffffffffffffff1602179055508173ffffffffffffffffffffffffffffffffffffffff168173ffffffffffffffffffffffffffffffffffffffff167f8be0079c531659141344cd1fd0a4f28419497f9722a3daafe3b4186f6b6457e060405160405180910390a35050565b6000600a8260ff161015610f6857603082610f5e9190611c91565b60f81b9050610f7b565b605782610f759190611c91565b60f81b90505b919050565b600033905090565b6000604051905090565b600080fd5b600080fd5b600080fd5b600080fd5b6000601f19601f8301169050919050565b7f4e487b7100000000000000000000000000000000000000000000000000000000600052604160045260246000fd5b610fef82610fa6565b810181811067ffffffffffffffff8211171561100e5761100d610fb7565b5b80604052505050565b6000611021610f88565b905061102d8282610fe6565b919050565b600067ffffffffffffffff82111561104d5761104c610fb7565b5b61105682610fa6565b9050602081019050919050565b82818337600083830152505050565b600061108561108084611032565b611017565b9050828152602081018484840111156110a1576110a0610fa1565b5b6110ac848285611063565b509392505050565b600082601f8301126110c9576110c8610f9c565b5b81356110d9848260208601611072565b91505092915050565b6000602082840312156110f8576110f7610f92565b5b600082013567ffffffffffffffff81111561111657611115610f97565b5b611122848285016110b4565b91505092915050565b600073ffffffffffffffffffffffffffffffffffffffff82169050919050565b60006111568261112b565b9050919050565b6111668161114b565b82525050565b6000602082019050611181600083018461115d565b92915050565b6000806000606084860312156111a05761119f610f92565b5b600084013567ffffffffffffffff8111156111be576111bd610f97565b5b6111ca868287016110b4565b935050602084013567ffffffffffffffff8111156111eb576111ea610f97565b5b6111f7868287016110b4565b925050604084013567ffffffffffffffff81111561121857611217610f97565b5b611224868287016110b4565b9150509250925092565b6000819050919050565b6112418161122e565b82525050565b600060208201905061125c6000830184611238565b92915050565b61126b8161114b565b811461127657600080fd5b50565b60008135905061128881611262565b92915050565b6000602082840312156112a4576112a3610f92565b5b60006112b284828501611279565b91505092915050565b600081519050919050565b600082825260208201905092915050565b60005b838110156112f55780820151818401526020810190506112da565b60008484015250505050565b600061130c826112bb565b61131681856112c6565b93506113268185602086016112d7565b61132f81610fa6565b840191505092915050565b600060c08201905081810360008301526113548189611301565b905081810360208301526113688188611301565b9050818103604083015261137c8187611301565b905061138b6060830186611238565b6113986080830185611238565b6113a560a0830184611238565b979650505050505050565b6113b98161122e565b81146113c457600080fd5b50565b6000813590506113d6816113b0565b92915050565b600080604083850312156113f3576113f2610f92565b5b600061140185828601611279565b9250506020611412858286016113c7565b9150509250929050565b6000819050919050565b600061144161143c6114378461112b565b61141c565b61112b565b9050919050565b600061145382611426565b9050919050565b600061146582611448565b9050919050565b6114758161145a565b82525050565b6000602082019050611490600083018461146c565b92915050565b7f4e487b7100000000000000000000000000000000000000000000000000000000600052602260045260246000fd5b600060028204905060018216806114dd57607f821691505b6020821081036114f0576114ef611496565b5b50919050565b7f5573657220616c72656164792072656769737465726564000000000000000000600082015250565b600061152c6017836112c6565b9150611537826114f6565b602082019050919050565b6000602082019050818103600083015261155b8161151f565b9050919050565b60008190508160005260206000209050919050565b60006020601f8301049050919050565b600082821b905092915050565b6000600883026115c47fffffffffffffffffffffffffffffffffffffffffffffffffffffffffffffffff82611587565b6115ce8683611587565b95508019841693508086168417925050509392505050565b60006116016115fc6115f78461122e565b61141c565b61122e565b9050919050565b6000819050919050565b61161b836115e6565b61162f61162782611608565b848454611594565b825550505050565b600090565b611644611637565b61164f818484611612565b505050565b5b818110156116735761166860008261163c565b600181019050611655565b5050565b601f8211156116b85761168981611562565b61169284611577565b810160208510156116a1578190505b6116b56116ad85611577565b830182611654565b50505b505050565b600082821c905092915050565b60006116db600019846008026116bd565b1980831691505092915050565b60006116f483836116ca565b9150826002028217905092915050565b61170d826112bb565b67ffffffffffffffff81111561172657611725610fb7565b5b61173082546114c5565b61173b828285611677565b600060209050601f83116001811461176e576000841561175c578287015190505b61176685826116e8565b8655506117ce565b601f19841661177c86611562565b60005b828110156117a45784890151825560018201915060208501945060208101905061177f565b868310156117c157848901516117bd601f8916826116ca565b8355505b6001600288020188555050505b505050505050565b600081905092915050565b60006117ec826112bb565b6117f681856117d6565b93506118068185602086016112d7565b80840191505092915050565b600061181e82846117e1565b915081905092915050565b600060608201905081810360008301526118438186611301565b905081810360208301526118578185611301565b9050818103604083015261186b8184611301565b9050949350505050565b600060408201905061188a600083018561115d565b6118976020830184611238565b9392505050565b60008115159050919050565b6118b38161189e565b81146118be57600080fd5b50565b6000815190506118d0816118aa565b92915050565b6000602082840312156118ec576118eb610f92565b5b60006118fa848285016118c1565b91505092915050565b7f4e487b7100000000000000000000000000000000000000000000000000000000600052601160045260246000fd5b600061193d8261122e565b91506119488361122e565b92508282019050808211156119605761195f611903565b5b92915050565b600060208201905081810360008301526119808184611301565b905092915050565b60008154611995816114c5565b61199f81866117d6565b945060018216600081146119ba57600181146119cf57611a02565b60ff1983168652811515820286019350611a02565b6119d885611562565b60005b838110156119fa578154818901526001820191506020810190506119db565b838801955050505b50505092915050565b6000611a178284611988565b915081905092915050565b6000611a2d8261122e565b9150611a388361122e565b9250828202611a468161122e565b91508282048414831517611a5d57611a5c611903565b5b5092915050565b7f4e487b7100000000000000000000000000000000000000000000000000000000600052601260045260246000fd5b6000611a9e8261122e565b9150611aa98361122e565b925082611ab957611ab8611a64565b5b828204905092915050565b60008160601b9050919050565b6000611adc82611ac4565b9050919050565b6000611aee82611ad1565b9050919050565b611b06611b018261114b565b611ae3565b82525050565b6000611b188284611af5565b60148201915081905092915050565b7f4e487b7100000000000000000000000000000000000000000000000000000000600052603260045260246000fd5b600060ff82169050919050565b6000611b6e82611b56565b9150611b7983611b56565b925082611b8957611b88611a64565b5b828206905092915050565b6000611b9f8261122e565b91507fffffffffffffffffffffffffffffffffffffffffffffffffffffffffffffffff8203611bd157611bd0611903565b5b600182019050919050565b7f3078000000000000000000000000000000000000000000000000000000000000600082015250565b6000611c126002836117d6565b9150611c1d82611bdc565b600282019050919050565b600081519050919050565b600081905092915050565b6000611c4982611c28565b611c538185611c33565b9350611c638185602086016112d7565b80840191505092915050565b6000611c7a82611c05565b9150611c868284611c3e565b915081905092915050565b6000611c9c82611b56565b9150611ca783611b56565b9250828201905060ff811115611cc057611cbf611903565b5b9291505056fea2646970667358221220f840d5bace794eb1b8fa5628497c6283558d5d9631566fc59471e87e68f93c3d64736f6c63430008140033",
  "linkReferences": {},
  "deployedLinkReferences": {}
}