{
  "_format": "hh-sol-artifact-1",
  "contractName": "Dex",
  "sourceName": "contracts/Dex.sol",
  "abi": [
    {
      "inputs": [
        {
          "internalType": "address",
          "name": "_token",
          "type": "address"
        }
      ],
      "stateMutability": "nonpayable",
      "type": "constructor"
    },
    {
      "inputs": [
        {
          "internalType": "address",
          "name": "owner",
          "type": "address"
        }
      ],
      "name": "OwnableInvalidOwner",
      "type": "error"
    },
    {
      "inputs": [
        {
          "internalType": "address",
          "name": "account",
          "type": "address"
        }
      ],
      "name": "OwnableUnauthorizedAccount",
      "type": "error"
    },
    {
      "anonymous": false,
      "inputs": [
        {
          "indexed": true,
          "internalType": "address",
          "name": "user",
          "type": "address"
        },
        {
          "indexed": false,
          "internalType": "uint256",
          "name": "wbtAmount",
          "type": "uint256"
        },
        {
          "indexed": false,
          "internalType": "uint256",
          "name": "wpoinsAmount",
          "type": "uint256"
        }
      ],
      "name": "LiquidityAdded",
      "type": "event"
    },
    {
      "anonymous": false,
      "inputs": [
        {
          "indexed": true,
          "internalType": "address",
          "name": "user",
          "type": "address"
        },
        {
          "indexed": false,
          "internalType": "uint256",
          "name": "wbtAmount",
          "type": "uint256"
        },
        {
          "indexed": false,
          "internalType": "uint256",
          "name": "wpoinsAmount",
          "type": "uint256"
        }
      ],
      "name": "LiquidityRemoved",
      "type": "event"
    },
    {
      "anonymous": false,
      "inputs": [
        {
          "indexed": true,
          "internalType": "address",
          "name": "previousOwner",
          "type": "address"
        },
        {
          "indexed": true,
          "internalType": "address",
          "name": "newOwner",
          "type": "address"
        }
      ],
      "name": "OwnershipTransferred",
      "type": "event"
    },
    {
      "anonymous": false,
      "inputs": [
        {
          "indexed": true,
          "internalType": "address",
          "name": "user",
          "type": "address"
        },
        {
          "indexed": false,
          "internalType": "uint256",
          "name": "amount",
          "type": "uint256"
        },
        {
          "indexed": false,
          "internalType": "uint256",
          "name": "cost",
          "type": "uint256"
        }
      ],
      "name": "TokensPurchased",
      "type": "event"
    },
    {
      "anonymous": false,
      "inputs": [
        {
          "indexed": true,
          "internalType": "address",
          "name": "user",
          "type": "address"
        },
        {
          "indexed": false,
          "internalType": "uint256",
          "name": "amount",
          "type": "uint256"
        },
        {
          "indexed": false,
          "internalType": "uint256",
          "name": "revenue",
          "type": "uint256"
        }
      ],
      "name": "TokensSold",
      "type": "event"
    },
    {
      "inputs": [
        {
          "internalType": "uint256",
          "name": "wbtAmount",
          "type": "uint256"
        },
        {
          "internalType": "uint256",
          "name": "wpoinsAmount",
          "type": "uint256"
        }
      ],
      "name": "addLiquidity",
      "outputs": [],
      "stateMutability": "nonpayable",
      "type": "function"
    },
    {
      "inputs": [
        {
          "internalType": "uint256",
          "name": "newBuyFee",
          "type": "uint256"
        },
        {
          "internalType": "uint256",
          "name": "newSellFee",
          "type": "uint256"
        }
      ],
      "name": "adjustFees",
      "outputs": [],
      "stateMutability": "nonpayable",
      "type": "function"
    },
    {
      "inputs": [],
      "name": "buyFee",
      "outputs": [
        {
          "internalType": "uint256",
          "name": "",
          "type": "uint256"
        }
      ],
      "stateMutability": "view",
      "type": "function"
    },
    {
      "inputs": [],
      "name": "buyTokens",
      "outputs": [],
      "stateMutability": "payable",
      "type": "function"
    },
    {
      "inputs": [
        {
          "internalType": "address",
          "name": "",
          "type": "address"
        }
      ],
      "name": "liquidityProviderShares",
      "outputs": [
        {
          "internalType": "uint256",
          "name": "",
          "type": "uint256"
        }
      ],
      "stateMutability": "view",
      "type": "function"
    },
    {
      "inputs": [],
      "name": "owner",
      "outputs": [
        {
          "internalType": "address",
          "name": "",
          "type": "address"
        }
      ],
      "stateMutability": "view",
      "type": "function"
    },
    {
      "inputs": [
        {
          "internalType": "uint256",
          "name": "shares",
          "type": "uint256"
        }
      ],
      "name": "removeLiquidity",
      "outputs": [],
      "stateMutability": "nonpayable",
      "type": "function"
    },
    {
      "inputs": [],
      "name": "renounceOwnership",
      "outputs": [],
      "stateMutability": "nonpayable",
      "type": "function"
    },
    {
      "inputs": [],
      "name": "sellFee",
      "outputs": [
        {
          "internalType": "uint256",
          "name": "",
          "type": "uint256"
        }
      ],
      "stateMutability": "view",
      "type": "function"
    },
    {
      "inputs": [
        {
          "internalType": "uint256",
          "name": "tokenAmount",
          "type": "uint256"
        }
      ],
      "name": "sellTokens",
      "outputs": [],
      "stateMutability": "nonpayable",
      "type": "function"
    },
    {
      "inputs": [],
      "name": "token",
      "outputs": [
        {
          "internalType": "contract IERC20",
          "name": "",
          "type": "address"
        }
      ],
      "stateMutability": "view",
      "type": "function"
    },
    {
      "inputs": [],
      "name": "totalWBTInContract",
      "outputs": [
        {
          "internalType": "uint256",
          "name": "",
          "type": "uint256"
        }
      ],
      "stateMutability": "view",
      "type": "function"
    },
    {
      "inputs": [],
      "name": "totalWpoinsInContract",
      "outputs": [
        {
          "internalType": "uint256",
          "name": "",
          "type": "uint256"
        }
      ],
      "stateMutability": "view",
      "type": "function"
    },
    {
      "inputs": [
        {
          "internalType": "address",
          "name": "newOwner",
          "type": "address"
        }
      ],
      "name": "transferOwnership",
      "outputs": [],
      "stateMutability": "nonpayable",
      "type": "function"
    }
  ],
  "bytecode": "0x6080604052600260045560026005553480156200001b57600080fd5b506040516200186838038062001868833981810160405281019062000041919062000253565b33600073ffffffffffffffffffffffffffffffffffffffff168173ffffffffffffffffffffffffffffffffffffffff1603620000b75760006040517f1e4fbdf7000000000000000000000000000000000000000000000000000000008152600401620000ae919062000296565b60405180910390fd5b620000c8816200012560201b60201c565b5080600160006101000a81548173ffffffffffffffffffffffffffffffffffffffff021916908373ffffffffffffffffffffffffffffffffffffffff1602179055506c01a40d7ac927e11eedd000000060038190555050620002b3565b60008060009054906101000a900473ffffffffffffffffffffffffffffffffffffffff169050816000806101000a81548173ffffffffffffffffffffffffffffffffffffffff021916908373ffffffffffffffffffffffffffffffffffffffff1602179055508173ffffffffffffffffffffffffffffffffffffffff168173ffffffffffffffffffffffffffffffffffffffff167f8be0079c531659141344cd1fd0a4f28419497f9722a3daafe3b4186f6b6457e060405160405180910390a35050565b600080fd5b600073ffffffffffffffffffffffffffffffffffffffff82169050919050565b60006200021b82620001ee565b9050919050565b6200022d816200020e565b81146200023957600080fd5b50565b6000815190506200024d8162000222565b92915050565b6000602082840312156200026c576200026b620001e9565b5b60006200027c848285016200023c565b91505092915050565b62000290816200020e565b82525050565b6000602082019050620002ad600083018462000285565b92915050565b6115a580620002c36000396000f3fe6080604052600436106100dd5760003560e01c80639c8f9f231161007f578063cf4ee07611610059578063cf4ee07614610286578063d0febe4c146102b1578063f2fde38b146102bb578063fc0c546a146102e4576100dd565b80639c8f9f231461020b5780639cd441da14610234578063b9d2326e1461025d576100dd565b80636c11bcd3116100bb5780636c11bcd314610175578063715018a61461019e5780637bf4b2dc146101b55780638da5cb5b146101e0576100dd565b80632b14ca56146100e2578063470624021461010d5780635608d0d314610138575b600080fd5b3480156100ee57600080fd5b506100f761030f565b6040516101049190610f33565b60405180910390f35b34801561011957600080fd5b50610122610315565b60405161012f9190610f33565b60405180910390f35b34801561014457600080fd5b5061015f600480360381019061015a9190610fb1565b61031b565b60405161016c9190610f33565b60405180910390f35b34801561018157600080fd5b5061019c6004803603810190610197919061100a565b610333565b005b3480156101aa57600080fd5b506101b361057e565b005b3480156101c157600080fd5b506101ca610592565b6040516101d79190610f33565b60405180910390f35b3480156101ec57600080fd5b506101f5610598565b6040516102029190611046565b60405180910390f35b34801561021757600080fd5b50610232600480360381019061022d919061100a565b6105c1565b005b34801561024057600080fd5b5061025b60048036038101906102569190611061565b61089a565b005b34801561026957600080fd5b50610284600480360381019061027f9190611061565b610b38565b005b34801561029257600080fd5b5061029b610b52565b6040516102a89190610f33565b60405180910390f35b6102b9610b58565b005b3480156102c757600080fd5b506102e260048036038101906102dd9190610fb1565b610d1b565b005b3480156102f057600080fd5b506102f9610da1565b6040516103069190611100565b60405180910390f35b60055481565b60045481565b60066020528060005260406000206000915090505481565b60008111610376576040517f08c379a000000000000000000000000000000000000000000000000000000000815260040161036d90611178565b60405180910390fd5b600160009054906101000a900473ffffffffffffffffffffffffffffffffffffffff1673ffffffffffffffffffffffffffffffffffffffff166323b872dd3330846040518463ffffffff1660e01b81526004016103d593929190611198565b6020604051808303816000875af11580156103f4573d6000803e3d6000fd5b505050506040513d601f19601f820116820180604052508101906104189190611207565b610457576040517f08c379a000000000000000000000000000000000000000000000000000000000815260040161044e90611280565b60405180910390fd5b60008160035461046791906112cf565b600254836104759190611303565b61047f9190611374565b905060006064600554836104939190611303565b61049d9190611374565b9050600081836104ad91906113a5565b905082600260008282546104c191906113a5565b9250508190555083600360008282546104da91906112cf565b925050819055503373ffffffffffffffffffffffffffffffffffffffff166108fc829081150290604051600060405180830381858888f19350505050158015610527573d6000803e3d6000fd5b503373ffffffffffffffffffffffffffffffffffffffff167f2dcf9433d75db0d8b1c172641f85e319ffe4ad22e108a95d1847ceb906e5195d85836040516105709291906113d9565b60405180910390a250505050565b610586610dc7565b6105906000610e4e565b565b60035481565b60008060009054906101000a900473ffffffffffffffffffffffffffffffffffffffff16905090565b60008111610604576040517f08c379a00000000000000000000000000000000000000000000000000000000081526004016105fb9061144e565b60405180910390fd5b80600660003373ffffffffffffffffffffffffffffffffffffffff1673ffffffffffffffffffffffffffffffffffffffff168152602001908152602001600020541015610686576040517f08c379a000000000000000000000000000000000000000000000000000000000815260040161067d906114ba565b60405180910390fd5b600060035460025461069891906112cf565b9050600081600254846106ab9190611303565b6106b59190611374565b9050600082600354856106c89190611303565b6106d29190611374565b905083600660003373ffffffffffffffffffffffffffffffffffffffff1673ffffffffffffffffffffffffffffffffffffffff168152602001908152602001600020600082825461072391906113a5565b92505081905550816002600082825461073c91906113a5565b92505081905550806003600082825461075591906113a5565b925050819055503373ffffffffffffffffffffffffffffffffffffffff166108fc839081150290604051600060405180830381858888f193505050501580156107a2573d6000803e3d6000fd5b50600160009054906101000a900473ffffffffffffffffffffffffffffffffffffffff1673ffffffffffffffffffffffffffffffffffffffff1663a9059cbb33836040518363ffffffff1660e01b81526004016108009291906114da565b6020604051808303816000875af115801561081f573d6000803e3d6000fd5b505050506040513d601f19601f820116820180604052508101906108439190611207565b503373ffffffffffffffffffffffffffffffffffffffff167f96cd817c6329656790ef8fba7675405193677d39619571282f5e21f3a98cd059838360405161088c9291906113d9565b60405180910390a250505050565b6000821180156108aa5750600081115b6108e9576040517f08c379a00000000000000000000000000000000000000000000000000000000081526004016108e09061154f565b60405180910390fd5b600160009054906101000a900473ffffffffffffffffffffffffffffffffffffffff1673ffffffffffffffffffffffffffffffffffffffff166323b872dd3330846040518463ffffffff1660e01b815260040161094893929190611198565b6020604051808303816000875af1158015610967573d6000803e3d6000fd5b505050506040513d601f19601f8201168201806040525081019061098b9190611207565b6109ca576040517f08c379a00000000000000000000000000000000000000000000000000000000081526004016109c190611280565b60405180910390fd5b3073ffffffffffffffffffffffffffffffffffffffff166108fc839081150290604051600060405180830381858888f19350505050158015610a10573d6000803e3d6000fd5b506000600354600254610a2391906112cf565b90506000600354600254610a3791906112cf565b828486610a4491906112cf565b610a4e9190611303565b610a589190611374565b905080600660003373ffffffffffffffffffffffffffffffffffffffff1673ffffffffffffffffffffffffffffffffffffffff1681526020019081526020016000206000828254610aa991906112cf565b925050819055508360026000828254610ac291906112cf565b925050819055508260036000828254610adb91906112cf565b925050819055503373ffffffffffffffffffffffffffffffffffffffff167fac1d76749e5447b7b16f5ab61447e1bd502f3bb4807af3b28e620d1700a6ee458585604051610b2a9291906113d9565b60405180910390a250505050565b610b40610dc7565b81600481905550806005819055505050565b60025481565b60003411610b9b576040517f08c379a0000000000000000000000000000000000000000000000000000000008152600401610b9290611178565b60405180910390fd5b6000606460045434610bad9190611303565b610bb79190611374565b905060008134610bc791906113a5565b9050600081600254610bd991906112cf565b60035483610be79190611303565b610bf19190611374565b90508160026000828254610c0591906112cf565b925050819055508060036000828254610c1e91906113a5565b92505081905550600160009054906101000a900473ffffffffffffffffffffffffffffffffffffffff1673ffffffffffffffffffffffffffffffffffffffff1663a9059cbb33836040518363ffffffff1660e01b8152600401610c829291906114da565b6020604051808303816000875af1158015610ca1573d6000803e3d6000fd5b505050506040513d601f19601f82011682018060405250810190610cc59190611207565b503373ffffffffffffffffffffffffffffffffffffffff167f8fafebcaf9d154343dad25669bfa277f4fbacd7ac6b0c4fed522580e040a0f338234604051610d0e9291906113d9565b60405180910390a2505050565b610d23610dc7565b600073ffffffffffffffffffffffffffffffffffffffff168173ffffffffffffffffffffffffffffffffffffffff1603610d955760006040517f1e4fbdf7000000000000000000000000000000000000000000000000000000008152600401610d8c9190611046565b60405180910390fd5b610d9e81610e4e565b50565b600160009054906101000a900473ffffffffffffffffffffffffffffffffffffffff1681565b610dcf610f12565b73ffffffffffffffffffffffffffffffffffffffff16610ded610598565b73ffffffffffffffffffffffffffffffffffffffff1614610e4c57610e10610f12565b6040517f118cdaa7000000000000000000000000000000000000000000000000000000008152600401610e439190611046565b60405180910390fd5b565b60008060009054906101000a900473ffffffffffffffffffffffffffffffffffffffff169050816000806101000a81548173ffffffffffffffffffffffffffffffffffffffff021916908373ffffffffffffffffffffffffffffffffffffffff1602179055508173ffffffffffffffffffffffffffffffffffffffff168173ffffffffffffffffffffffffffffffffffffffff167f8be0079c531659141344cd1fd0a4f28419497f9722a3daafe3b4186f6b6457e060405160405180910390a35050565b600033905090565b6000819050919050565b610f2d81610f1a565b82525050565b6000602082019050610f486000830184610f24565b92915050565b600080fd5b600073ffffffffffffffffffffffffffffffffffffffff82169050919050565b6000610f7e82610f53565b9050919050565b610f8e81610f73565b8114610f9957600080fd5b50565b600081359050610fab81610f85565b92915050565b600060208284031215610fc757610fc6610f4e565b5b6000610fd584828501610f9c565b91505092915050565b610fe781610f1a565b8114610ff257600080fd5b50565b60008135905061100481610fde565b92915050565b6000602082840312156110205761101f610f4e565b5b600061102e84828501610ff5565b91505092915050565b61104081610f73565b82525050565b600060208201905061105b6000830184611037565b92915050565b6000806040838503121561107857611077610f4e565b5b600061108685828601610ff5565b925050602061109785828601610ff5565b9150509250929050565b6000819050919050565b60006110c66110c16110bc84610f53565b6110a1565b610f53565b9050919050565b60006110d8826110ab565b9050919050565b60006110ea826110cd565b9050919050565b6110fa816110df565b82525050565b600060208201905061111560008301846110f1565b92915050565b600082825260208201905092915050565b7f416d6f756e74206d7573742062652067726561746572207468616e2030000000600082015250565b6000611162601d8361111b565b915061116d8261112c565b602082019050919050565b6000602082019050818103600083015261119181611155565b9050919050565b60006060820190506111ad6000830186611037565b6111ba6020830185611037565b6111c76040830184610f24565b949350505050565b60008115159050919050565b6111e4816111cf565b81146111ef57600080fd5b50565b600081519050611201816111db565b92915050565b60006020828403121561121d5761121c610f4e565b5b600061122b848285016111f2565b91505092915050565b7f5472616e73666572206661696c65640000000000000000000000000000000000600082015250565b600061126a600f8361111b565b915061127582611234565b602082019050919050565b600060208201905081810360008301526112998161125d565b9050919050565b7f4e487b7100000000000000000000000000000000000000000000000000000000600052601160045260246000fd5b60006112da82610f1a565b91506112e583610f1a565b92508282019050808211156112fd576112fc6112a0565b5b92915050565b600061130e82610f1a565b915061131983610f1a565b925082820261132781610f1a565b9150828204841483151761133e5761133d6112a0565b5b5092915050565b7f4e487b7100000000000000000000000000000000000000000000000000000000600052601260045260246000fd5b600061137f82610f1a565b915061138a83610f1a565b92508261139a57611399611345565b5b828204905092915050565b60006113b082610f1a565b91506113bb83610f1a565b92508282039050818111156113d3576113d26112a0565b5b92915050565b60006040820190506113ee6000830185610f24565b6113fb6020830184610f24565b9392505050565b7f536861726573206d7573742062652067726561746572207468616e2030000000600082015250565b6000611438601d8361111b565b915061144382611402565b602082019050919050565b600060208201905081810360008301526114678161142b565b9050919050565b7f496e73756666696369656e742073686172657300000000000000000000000000600082015250565b60006114a460138361111b565b91506114af8261146e565b602082019050919050565b600060208201905081810360008301526114d381611497565b9050919050565b60006040820190506114ef6000830185611037565b6114fc6020830184610f24565b9392505050565b7f416d6f756e7473206d7573742062652067726561746572207468616e20300000600082015250565b6000611539601e8361111b565b915061154482611503565b602082019050919050565b600060208201905081810360008301526115688161152c565b905091905056fea2646970667358221220cbf633a0630610d2d3e334d60a14b400a98ecc0494b27d6259f9b014e970742564736f6c63430008140033",
  "linkReferences": {},
  "deployedLinkReferences": {}
}