{
  "_format": "hh-sol-artifact-1",
  "contractName": "Staking",
  "sourceName": "contracts/Staking.sol",
  "abi": [
    {
      "inputs": [
        {
          "internalType": "address",
          "name": "_token",
          "type": "address"
        }
      ],
      "stateMutability": "nonpayable",
      "type": "constructor"
    },
    {
      "inputs": [
        {
          "internalType": "address",
          "name": "owner",
          "type": "address"
        }
      ],
      "name": "OwnableInvalidOwner",
      "type": "error"
    },
    {
      "inputs": [
        {
          "internalType": "address",
          "name": "account",
          "type": "address"
        }
      ],
      "name": "OwnableUnauthorizedAccount",
      "type": "error"
    },
    {
      "anonymous": false,
      "inputs": [
        {
          "indexed": true,
          "internalType": "address",
          "name": "previousOwner",
          "type": "address"
        },
        {
          "indexed": true,
          "internalType": "address",
          "name": "newOwner",
          "type": "address"
        }
      ],
      "name": "OwnershipTransferred",
      "type": "event"
    },
    {
      "anonymous": false,
      "inputs": [
        {
          "indexed": true,
          "internalType": "address",
          "name": "user",
          "type": "address"
        },
        {
          "indexed": false,
          "internalType": "uint256",
          "name": "amount",
          "type": "uint256"
        }
      ],
      "name": "Staked",
      "type": "event"
    },
    {
      "anonymous": false,
      "inputs": [
        {
          "indexed": true,
          "internalType": "address",
          "name": "user",
          "type": "address"
        },
        {
          "indexed": false,
          "internalType": "uint256",
          "name": "amount",
          "type": "uint256"
        },
        {
          "indexed": false,
          "internalType": "uint256",
          "name": "reward",
          "type": "uint256"
        }
      ],
      "name": "Unstaked",
      "type": "event"
    },
    {
      "inputs": [
        {
          "internalType": "uint256",
          "name": "minAmount",
          "type": "uint256"
        },
        {
          "internalType": "uint256",
          "name": "rewardRate",
          "type": "uint256"
        }
      ],
      "name": "addStakingTier",
      "outputs": [],
      "stateMutability": "nonpayable",
      "type": "function"
    },
    {
      "inputs": [
        {
          "internalType": "address",
          "name": "user",
          "type": "address"
        }
      ],
      "name": "calculateReward",
      "outputs": [
        {
          "internalType": "uint256",
          "name": "",
          "type": "uint256"
        }
      ],
      "stateMutability": "view",
      "type": "function"
    },
    {
      "inputs": [
        {
          "internalType": "address",
          "name": "user",
          "type": "address"
        }
      ],
      "name": "getStakingRate",
      "outputs": [
        {
          "internalType": "uint256",
          "name": "",
          "type": "uint256"
        }
      ],
      "stateMutability": "view",
      "type": "function"
    },
    {
      "inputs": [],
      "name": "owner",
      "outputs": [
        {
          "internalType": "address",
          "name": "",
          "type": "address"
        }
      ],
      "stateMutability": "view",
      "type": "function"
    },
    {
      "inputs": [],
      "name": "renounceOwnership",
      "outputs": [],
      "stateMutability": "nonpayable",
      "type": "function"
    },
    {
      "inputs": [
        {
          "internalType": "uint256",
          "name": "amount",
          "type": "uint256"
        }
      ],
      "name": "stake",
      "outputs": [],
      "stateMutability": "nonpayable",
      "type": "function"
    },
    {
      "inputs": [
        {
          "internalType": "address",
          "name": "",
          "type": "address"
        }
      ],
      "name": "stakingBalances",
      "outputs": [
        {
          "internalType": "uint256",
          "name": "",
          "type": "uint256"
        }
      ],
      "stateMutability": "view",
      "type": "function"
    },
    {
      "inputs": [
        {
          "internalType": "address",
          "name": "",
          "type": "address"
        }
      ],
      "name": "stakingStartTimes",
      "outputs": [
        {
          "internalType": "uint256",
          "name": "",
          "type": "uint256"
        }
      ],
      "stateMutability": "view",
      "type": "function"
    },
    {
      "inputs": [
        {
          "internalType": "uint256",
          "name": "",
          "type": "uint256"
        }
      ],
      "name": "stakingTiers",
      "outputs": [
        {
          "internalType": "uint256",
          "name": "minAmount",
          "type": "uint256"
        },
        {
          "internalType": "uint256",
          "name": "rewardRate",
          "type": "uint256"
        }
      ],
      "stateMutability": "view",
      "type": "function"
    },
    {
      "inputs": [],
      "name": "token",
      "outputs": [
        {
          "internalType": "contract IERC20",
          "name": "",
          "type": "address"
        }
      ],
      "stateMutability": "view",
      "type": "function"
    },
    {
      "inputs": [
        {
          "internalType": "address",
          "name": "newOwner",
          "type": "address"
        }
      ],
      "name": "transferOwnership",
      "outputs": [],
      "stateMutability": "nonpayable",
      "type": "function"
    },
    {
      "inputs": [],
      "name": "unstake",
      "outputs": [],
      "stateMutability": "nonpayable",
      "type": "function"
    }
  ],
  "bytecode": "0x60806040523480156200001157600080fd5b506040516200151d3803806200151d833981810160405281019062000037919062000357565b33600073ffffffffffffffffffffffffffffffffffffffff168173ffffffffffffffffffffffffffffffffffffffff1603620000ad5760006040517f1e4fbdf7000000000000000000000000000000000000000000000000000000008152600401620000a491906200039a565b60405180910390fd5b620000be816200022960201b60201c565b5080600160006101000a81548173ffffffffffffffffffffffffffffffffffffffff021916908373ffffffffffffffffffffffffffffffffffffffff16021790555060026040518060400160405280683635c9adc5dea00000815260200160058152509080600181540180825580915050600190039060005260206000209060020201600090919091909150600082015181600001556020820151816001015550506002604051806040016040528069021e19e0c9bab24000008152602001600a8152509080600181540180825580915050600190039060005260206000209060020201600090919091909150600082015181600001556020820151816001015550506002604051806040016040528069152d02c7e14af68000008152602001600f81525090806001815401808255809150506001900390600052602060002090600202016000909190919091506000820151816000015560208201518160010155505050620003b7565b60008060009054906101000a900473ffffffffffffffffffffffffffffffffffffffff169050816000806101000a81548173ffffffffffffffffffffffffffffffffffffffff021916908373ffffffffffffffffffffffffffffffffffffffff1602179055508173ffffffffffffffffffffffffffffffffffffffff168173ffffffffffffffffffffffffffffffffffffffff167f8be0079c531659141344cd1fd0a4f28419497f9722a3daafe3b4186f6b6457e060405160405180910390a35050565b600080fd5b600073ffffffffffffffffffffffffffffffffffffffff82169050919050565b60006200031f82620002f2565b9050919050565b620003318162000312565b81146200033d57600080fd5b50565b600081519050620003518162000326565b92915050565b60006020828403121562000370576200036f620002ed565b5b6000620003808482850162000340565b91505092915050565b620003948162000312565b82525050565b6000602082019050620003b1600083018462000389565b92915050565b61115680620003c76000396000f3fe608060405234801561001057600080fd5b50600436106100b45760003560e01c80639dedb97d116100715780639dedb97d14610167578063a694fc3a14610197578063d50267ee146101b3578063d82e3962146101e4578063f2fde38b14610214578063fc0c546a14610230576100b4565b8063111a9802146100b95780631c37ede4146100d55780632def66201461010557806361b8b5dc1461010f578063715018a61461013f5780638da5cb5b14610149575b600080fd5b6100d360048036038101906100ce9190610b86565b61024e565b005b6100ef60048036038101906100ea9190610c24565b6102b0565b6040516100fc9190610c60565b60405180910390f35b61010d61039b565b005b61012960048036038101906101249190610c24565b6105b9565b6040516101369190610c60565b60405180910390f35b6101476105d1565b005b6101516105e5565b60405161015e9190610c8a565b60405180910390f35b610181600480360381019061017c9190610c24565b61060e565b60405161018e9190610c60565b60405180910390f35b6101b160048036038101906101ac9190610ca5565b610626565b005b6101cd60048036038101906101c89190610ca5565b610835565b6040516101db929190610cd2565b60405180910390f35b6101fe60048036038101906101f99190610c24565b610869565b60405161020b9190610c60565b60405180910390f35b61022e60048036038101906102299190610c24565b61094c565b005b6102386109d2565b6040516102459190610d5a565b60405180910390f35b6102566109f8565b60026040518060400160405280848152602001838152509080600181540180825580915050600190039060005260206000209060020201600090919091909150600082015181600001556020820151816001015550505050565b600080600360008473ffffffffffffffffffffffffffffffffffffffff1673ffffffffffffffffffffffffffffffffffffffff168152602001908152602001600020549050600060028054905090505b600081111561038f5760026001826103189190610da4565b8154811061032957610328610dd8565b5b906000526020600020906002020160000154821061037c5760026001826103509190610da4565b8154811061036157610360610dd8565b5b90600052602060002090600202016001015492505050610396565b808061038790610e07565b915050610300565b5060009150505b919050565b6000600360003373ffffffffffffffffffffffffffffffffffffffff1673ffffffffffffffffffffffffffffffffffffffff16815260200190815260200160002054905060008111610422576040517f08c379a000000000000000000000000000000000000000000000000000000000815260040161041990610e8d565b60405180910390fd5b600061042d33610869565b90506000600360003373ffffffffffffffffffffffffffffffffffffffff1673ffffffffffffffffffffffffffffffffffffffff168152602001908152602001600020819055506000600460003373ffffffffffffffffffffffffffffffffffffffff1673ffffffffffffffffffffffffffffffffffffffff16815260200190815260200160002081905550600160009054906101000a900473ffffffffffffffffffffffffffffffffffffffff1673ffffffffffffffffffffffffffffffffffffffff1663a9059cbb3383856105049190610ead565b6040518363ffffffff1660e01b8152600401610521929190610ee1565b6020604051808303816000875af1158015610540573d6000803e3d6000fd5b505050506040513d601f19601f820116820180604052508101906105649190610f42565b503373ffffffffffffffffffffffffffffffffffffffff167f7fc4727e062e336010f2c282598ef5f14facb3de68cf8195c2f23e1454b2b74e83836040516105ad929190610cd2565b60405180910390a25050565b60036020528060005260406000206000915090505481565b6105d96109f8565b6105e36000610a7f565b565b60008060009054906101000a900473ffffffffffffffffffffffffffffffffffffffff16905090565b60046020528060005260406000206000915090505481565b60008111610669576040517f08c379a000000000000000000000000000000000000000000000000000000000815260040161066090610fbb565b60405180910390fd5b600160009054906101000a900473ffffffffffffffffffffffffffffffffffffffff1673ffffffffffffffffffffffffffffffffffffffff166323b872dd3330846040518463ffffffff1660e01b81526004016106c893929190610fdb565b6020604051808303816000875af11580156106e7573d6000803e3d6000fd5b505050506040513d601f19601f8201168201806040525081019061070b9190610f42565b61074a576040517f08c379a00000000000000000000000000000000000000000000000000000000081526004016107419061105e565b60405180910390fd5b80600360003373ffffffffffffffffffffffffffffffffffffffff1673ffffffffffffffffffffffffffffffffffffffff16815260200190815260200160002060008282546107999190610ead565b9250508190555042600460003373ffffffffffffffffffffffffffffffffffffffff1673ffffffffffffffffffffffffffffffffffffffff168152602001908152602001600020819055503373ffffffffffffffffffffffffffffffffffffffff167f9e71bc8eea02a63969f509818f2dafb9254532904319f9dbda79b67bd34a5f3d8260405161082a9190610c60565b60405180910390a250565b6002818154811061084557600080fd5b90600052602060002090600202016000915090508060000154908060010154905082565b600080600460008473ffffffffffffffffffffffffffffffffffffffff1673ffffffffffffffffffffffffffffffffffffffff16815260200190815260200160002054426108b79190610da4565b905060006108c4846102b0565b905060006301e13380836108d891906110ad565b9050600060648284600360008a73ffffffffffffffffffffffffffffffffffffffff1673ffffffffffffffffffffffffffffffffffffffff1681526020019081526020016000205461092a91906110de565b61093491906110de565b61093e91906110ad565b905080945050505050919050565b6109546109f8565b600073ffffffffffffffffffffffffffffffffffffffff168173ffffffffffffffffffffffffffffffffffffffff16036109c65760006040517f1e4fbdf70000000000000000000000000000000000000000000000000000000081526004016109bd9190610c8a565b60405180910390fd5b6109cf81610a7f565b50565b600160009054906101000a900473ffffffffffffffffffffffffffffffffffffffff1681565b610a00610b43565b73ffffffffffffffffffffffffffffffffffffffff16610a1e6105e5565b73ffffffffffffffffffffffffffffffffffffffff1614610a7d57610a41610b43565b6040517f118cdaa7000000000000000000000000000000000000000000000000000000008152600401610a749190610c8a565b60405180910390fd5b565b60008060009054906101000a900473ffffffffffffffffffffffffffffffffffffffff169050816000806101000a81548173ffffffffffffffffffffffffffffffffffffffff021916908373ffffffffffffffffffffffffffffffffffffffff1602179055508173ffffffffffffffffffffffffffffffffffffffff168173ffffffffffffffffffffffffffffffffffffffff167f8be0079c531659141344cd1fd0a4f28419497f9722a3daafe3b4186f6b6457e060405160405180910390a35050565b600033905090565b600080fd5b6000819050919050565b610b6381610b50565b8114610b6e57600080fd5b50565b600081359050610b8081610b5a565b92915050565b60008060408385031215610b9d57610b9c610b4b565b5b6000610bab85828601610b71565b9250506020610bbc85828601610b71565b9150509250929050565b600073ffffffffffffffffffffffffffffffffffffffff82169050919050565b6000610bf182610bc6565b9050919050565b610c0181610be6565b8114610c0c57600080fd5b50565b600081359050610c1e81610bf8565b92915050565b600060208284031215610c3a57610c39610b4b565b5b6000610c4884828501610c0f565b91505092915050565b610c5a81610b50565b82525050565b6000602082019050610c756000830184610c51565b92915050565b610c8481610be6565b82525050565b6000602082019050610c9f6000830184610c7b565b92915050565b600060208284031215610cbb57610cba610b4b565b5b6000610cc984828501610b71565b91505092915050565b6000604082019050610ce76000830185610c51565b610cf46020830184610c51565b9392505050565b6000819050919050565b6000610d20610d1b610d1684610bc6565b610cfb565b610bc6565b9050919050565b6000610d3282610d05565b9050919050565b6000610d4482610d27565b9050919050565b610d5481610d39565b82525050565b6000602082019050610d6f6000830184610d4b565b92915050565b7f4e487b7100000000000000000000000000000000000000000000000000000000600052601160045260246000fd5b6000610daf82610b50565b9150610dba83610b50565b9250828203905081811115610dd257610dd1610d75565b5b92915050565b7f4e487b7100000000000000000000000000000000000000000000000000000000600052603260045260246000fd5b6000610e1282610b50565b915060008203610e2557610e24610d75565b5b600182039050919050565b600082825260208201905092915050565b7f4e6f207374616b696e6720666f756e6400000000000000000000000000000000600082015250565b6000610e77601083610e30565b9150610e8282610e41565b602082019050919050565b60006020820190508181036000830152610ea681610e6a565b9050919050565b6000610eb882610b50565b9150610ec383610b50565b9250828201905080821115610edb57610eda610d75565b5b92915050565b6000604082019050610ef66000830185610c7b565b610f036020830184610c51565b9392505050565b60008115159050919050565b610f1f81610f0a565b8114610f2a57600080fd5b50565b600081519050610f3c81610f16565b92915050565b600060208284031215610f5857610f57610b4b565b5b6000610f6684828501610f2d565b91505092915050565b7f416d6f756e74206d7573742062652067726561746572207468616e2030000000600082015250565b6000610fa5601d83610e30565b9150610fb082610f6f565b602082019050919050565b60006020820190508181036000830152610fd481610f98565b9050919050565b6000606082019050610ff06000830186610c7b565b610ffd6020830185610c7b565b61100a6040830184610c51565b949350505050565b7f5374616b696e67206661696c6564000000000000000000000000000000000000600082015250565b6000611048600e83610e30565b915061105382611012565b602082019050919050565b600060208201905081810360008301526110778161103b565b9050919050565b7f4e487b7100000000000000000000000000000000000000000000000000000000600052601260045260246000fd5b60006110b882610b50565b91506110c383610b50565b9250826110d3576110d261107e565b5b828204905092915050565b60006110e982610b50565b91506110f483610b50565b925082820261110281610b50565b9150828204841483151761111957611118610d75565b5b509291505056fea2646970667358221220fa56e5e6bb3ec3889670de6c3ae681910aaaae4d43dc82a5c2eb07ad87fff5a364736f6c63430008140033",
  "linkReferences": {},
  "deployedLinkReferences": {}
}